{
  "_format": "hh-sol-artifact-1",
  "contractName": "Inheritance",
  "sourceName": "contracts/Inheritance.sol",
  "abi": [
    {
      "anonymous": false,
      "inputs": [
        {
          "indexed": false,
          "internalType": "address",
          "name": "from",
          "type": "address"
        },
        {
          "indexed": false,
          "internalType": "address",
          "name": "to",
          "type": "address"
        },
        {
          "indexed": false,
          "internalType": "uint256",
          "name": "amount",
          "type": "uint256"
        }
      ],
      "name": "Transfer",
      "type": "event"
    },
    {
      "inputs": [],
      "name": "FamilyLists",
      "outputs": [
        {
          "components": [
            {
              "internalType": "address",
              "name": "familymember",
              "type": "address"
            },
            {
              "internalType": "uint256",
              "name": "amount",
              "type": "uint256"
            }
          ],
          "internalType": "struct Inheritance.Family[]",
          "name": "",
          "type": "tuple[]"
        }
      ],
      "stateMutability": "view",
      "type": "function"
    },
    {
      "inputs": [],
      "name": "assetOwner",
      "outputs": [
        {
          "internalType": "address",
          "name": "",
          "type": "address"
        }
      ],
      "stateMutability": "view",
      "type": "function"
    },
    {
      "inputs": [
        {
          "internalType": "address",
          "name": "_lawyer",
          "type": "address"
        }
      ],
      "name": "assignAsset",
      "outputs": [],
      "stateMutability": "payable",
      "type": "function"
    },
    {
      "inputs": [
        {
          "internalType": "address",
          "name": "_lawyer",
          "type": "address"
        }
      ],
      "name": "changeLawyer",
      "outputs": [],
      "stateMutability": "nonpayable",
      "type": "function"
    },
    {
      "inputs": [
        {
          "internalType": "uint256",
          "name": "",
          "type": "uint256"
        }
      ],
      "name": "familyWallet",
      "outputs": [
        {
          "internalType": "address payable",
          "name": "",
          "type": "address"
        }
      ],
      "stateMutability": "view",
      "type": "function"
    },
    {
      "inputs": [],
      "name": "fortune",
      "outputs": [
        {
          "internalType": "uint256",
          "name": "",
          "type": "uint256"
        }
      ],
      "stateMutability": "view",
      "type": "function"
    },
    {
      "inputs": [],
      "name": "hasDeceased",
      "outputs": [],
      "stateMutability": "nonpayable",
      "type": "function"
    },
    {
      "inputs": [],
      "name": "isDeceased",
      "outputs": [
        {
          "internalType": "bool",
          "name": "",
          "type": "bool"
        }
      ],
      "stateMutability": "view",
      "type": "function"
    },
    {
      "inputs": [],
      "name": "lawyer",
      "outputs": [
        {
          "internalType": "address",
          "name": "",
          "type": "address"
        }
      ],
      "stateMutability": "view",
      "type": "function"
    },
    {
      "inputs": [
        {
          "internalType": "address",
          "name": "wallet",
          "type": "address"
        },
        {
          "internalType": "uint256",
          "name": "amount",
          "type": "uint256"
        }
      ],
      "name": "setInheritance",
      "outputs": [],
      "stateMutability": "payable",
      "type": "function"
    }
  ],
  "bytecode": "0x608060405234801561001057600080fd5b50610a58806100206000396000f3fe6080604052600436106100915760003560e01c806388d515941161005957806388d51594146101635780638b8f945e146101765780639ac9940f14610198578063d8f32a9a146101b8578063eddcca99146101cb57600080fd5b8063177de89c146100965780633bfb6e31146100bf5780635d9c6a03146100f75780637d6092e01461011757806385ac451514610139575b600080fd5b3480156100a257600080fd5b506100ac60025481565b6040519081526020015b60405180910390f35b3480156100cb57600080fd5b506000546100df906001600160a01b031681565b6040516001600160a01b0390911681526020016100b6565b34801561010357600080fd5b506100df61011236600461087e565b6101e0565b34801561012357600080fd5b506101376101323660046108b3565b61020a565b005b34801561014557600080fd5b506003546101539060ff1681565b60405190151581526020016100b6565b6101376101713660046108d5565b61028b565b34801561018257600080fd5b5061018b6103f8565b6040516100b691906108ff565b3480156101a457600080fd5b506001546100df906001600160a01b031681565b6101376101c63660046108b3565b61046d565b3480156101d757600080fd5b506101376104ea565b600481815481106101f057600080fd5b6000918252602090912001546001600160a01b0316905081565b6001546001600160a01b031633146102695760405162461bcd60e51b815260206004820152601a60248201527f4f6e6c792041737365744f776e657220697320616c6c6f77656400000000000060448201526064015b60405180910390fd5b600080546001600160a01b0319166001600160a01b0392909216919091179055565b6001546001600160a01b031633146102e55760405162461bcd60e51b815260206004820152601a60248201527f4f6e6c792041737365744f776e657220697320616c6c6f7765640000000000006044820152606401610260565b60025481111561032c5760405162461bcd60e51b8152602060048201526012602482015271496e73756666696369656e742046756e647360701b6044820152606401610260565b6001600160a01b03821660009081526005602052604081208290556002805483929061035990849061096d565b909155505060048054600180820183556000929092527f8a35acfbc15ff81a39ae7d344fd709f28e8600b4aa8c65c6b64bfe7fe36bd19b0180546001600160a01b0319166001600160a01b038581169190911790915560408051808201909152601d81527f466f7274756e652069732025732c546865204f776e6572206973202573000000602082015260025492546103f49391921661055b565b5050565b60606006805480602002602001604051908101604052809291908181526020016000905b82821015610464576000848152602090819020604080518082019091526002850290910180546001600160a01b0316825260019081015482840152908352909201910161041c565b50505050905090565b60018054336001600160a01b03199182168117909255600080549091166001600160a01b0384161790553460028190556003805460ff1916905560408051808201909152601d81527f466f7274756e652069732025732c546865204f776e657220697320257300000060208201526104e79290919061055b565b50565b6000546001600160a01b031633146105445760405162461bcd60e51b815260206004820152601a60248201527f4f6e6c7920746865204c617779657220697320616c6c6f7765640000000000006044820152606401610260565b6003805460ff191660011790556105596105a7565b565b6105a283838360405160240161057393929190610984565b60408051601f198184030181529190526020810180516001600160e01b031663e3849f7960e01b17905261085d565b505050565b60035460ff1615156001146105bb57600080fd5b600254156106245760405162461bcd60e51b815260206004820152603060248201527f4c656674206f7665722066756e64206e6f742061737369676e656420746f207460448201526f1a194811985b5a5b1e4815d85b1b195d60821b6064820152608401610260565b60005b6004548110156104e75760048181548110610644576106446109f1565b6000918252602082200154600480546001600160a01b03909216926108fc926005929086908110610677576106776109f1565b60009182526020808320909101546001600160a01b03168352820192909252604090810182205490518115909302929091818181858888f193505050501580156106c5573d6000803e3d6000fd5b5060066040518060400160405280600484815481106106e6576106e66109f1565b9060005260206000200160009054906101000a90046001600160a01b03166001600160a01b031681526020016005600060048681548110610729576107296109f1565b6000918252602080832091909101546001600160a01b03908116845283820194909452604090920181205490935284546001808201875595845292819020845160029094020180546001600160a01b0319169383169390931783559290920151908301559054600480547fddf252ad1be2c89b69c2b068fc378daa952ba7f163c4a11628f55a4df523b3ef939290921691849081106107ca576107ca6109f1565b9060005260206000200160009054906101000a90046001600160a01b031660056000600486815481106107ff576107ff6109f1565b6000918252602080832091909101546001600160a01b0390811684528382019490945260409283019091205482519584168652939092169184019190915282015260600160405180910390a18061085581610a07565b915050610627565b80516a636f6e736f6c652e6c6f67602083016000808483855afa5050505050565b60006020828403121561089057600080fd5b5035919050565b80356001600160a01b03811681146108ae57600080fd5b919050565b6000602082840312156108c557600080fd5b6108ce82610897565b9392505050565b600080604083850312156108e857600080fd5b6108f183610897565b946020939093013593505050565b602080825282518282018190526000919060409081850190868401855b8281101561094a57815180516001600160a01b0316855286015186850152928401929085019060010161091c565b5091979650505050505050565b634e487b7160e01b600052601160045260246000fd5b60008282101561097f5761097f610957565b500390565b606081526000845180606084015260005b818110156109b25760208188018101516080868401015201610995565b818111156109c4576000608083860101525b506020830194909452506001600160a01b039190911660408201526080601f909201601f19160101919050565b634e487b7160e01b600052603260045260246000fd5b6000600019821415610a1b57610a1b610957565b506001019056fea264697066735822122031694776c9aa86b88f0f8387440563355012d7e200b5f1457382e283cab6a39b64736f6c63430008090033",
  "linkReferences": {},
  "deployedLinkReferences": {}
}