{
  "_format": "hh-sol-artifact-1",
  "contractName": "Inheritance",
  "sourceName": "contracts/Inheritance.sol",
  "abi": [
    {
      "inputs": [],
      "name": "InsufficientFund",
      "type": "error"
    },
    {
      "inputs": [],
      "name": "invalidID",
      "type": "error"
    },
    {
      "inputs": [],
      "name": "onlyLawyer",
      "type": "error"
    },
    {
      "inputs": [],
      "name": "onlyOwner",
      "type": "error"
    },
    {
      "inputs": [],
      "name": "ID",
      "outputs": [
        {
          "internalType": "uint256",
          "name": "",
          "type": "uint256"
        }
      ],
      "stateMutability": "view",
      "type": "function"
    },
    {
      "inputs": [
        {
          "internalType": "address",
          "name": "_lawyer",
          "type": "address"
        }
      ],
      "name": "assignAsset",
      "outputs": [],
      "stateMutability": "payable",
      "type": "function"
    },
    {
      "inputs": [
        {
          "internalType": "address",
          "name": "_lawyer",
          "type": "address"
        },
        {
          "internalType": "uint256",
          "name": "_id",
          "type": "uint256"
        }
      ],
      "name": "changeLawyer",
      "outputs": [],
      "stateMutability": "nonpayable",
      "type": "function"
    },
    {
      "inputs": [
        {
          "internalType": "uint256",
          "name": "_id",
          "type": "uint256"
        }
      ],
      "name": "countFamily",
      "outputs": [
        {
          "internalType": "uint256",
          "name": "",
          "type": "uint256"
        }
      ],
      "stateMutability": "view",
      "type": "function"
    },
    {
      "inputs": [],
      "name": "getAllInheritors",
      "outputs": [
        {
          "components": [
            {
              "internalType": "address",
              "name": "owner",
              "type": "address"
            },
            {
              "internalType": "address",
              "name": "inheritor",
              "type": "address"
            },
            {
              "internalType": "uint256",
              "name": "amount",
              "type": "uint256"
            },
            {
              "internalType": "uint256",
              "name": "id",
              "type": "uint256"
            }
          ],
          "internalType": "struct Inheritance.familyMember[]",
          "name": "",
          "type": "tuple[]"
        }
      ],
      "stateMutability": "view",
      "type": "function"
    },
    {
      "inputs": [
        {
          "internalType": "uint256",
          "name": "_id",
          "type": "uint256"
        }
      ],
      "name": "getFamilyList",
      "outputs": [
        {
          "internalType": "address payable[]",
          "name": "",
          "type": "address[]"
        }
      ],
      "stateMutability": "view",
      "type": "function"
    },
    {
      "inputs": [
        {
          "internalType": "uint256",
          "name": "_id",
          "type": "uint256"
        }
      ],
      "name": "getLawyer",
      "outputs": [
        {
          "internalType": "address",
          "name": "",
          "type": "address"
        }
      ],
      "stateMutability": "view",
      "type": "function"
    },
    {
      "inputs": [
        {
          "internalType": "uint256",
          "name": "_id",
          "type": "uint256"
        }
      ],
      "name": "getOwner",
      "outputs": [
        {
          "internalType": "address",
          "name": "",
          "type": "address"
        }
      ],
      "stateMutability": "view",
      "type": "function"
    },
    {
      "inputs": [
        {
          "internalType": "uint256",
          "name": "_id",
          "type": "uint256"
        }
      ],
      "name": "payout",
      "outputs": [],
      "stateMutability": "payable",
      "type": "function"
    },
    {
      "inputs": [
        {
          "internalType": "address payable",
          "name": "_inheritor",
          "type": "address"
        },
        {
          "internalType": "uint256",
          "name": "_amount",
          "type": "uint256"
        },
        {
          "internalType": "uint256",
          "name": "_id",
          "type": "uint256"
        }
      ],
      "name": "shareAsset",
      "outputs": [],
      "stateMutability": "payable",
      "type": "function"
    }
  ],
  "bytecode": "0x608060405234801561001057600080fd5b50610e60806100206000396000f3fe6080604052600436106100915760003560e01c8063b7fe4b4511610059578063b7fe4b451461014c578063c41a360a14610179578063d313a15e146101af578063d8f32a9a146101d1578063e1152343146101e457600080fd5b806308f14df714610096578063112710aa146100ab57806313d46672146100de5780633a0ac99a146100fe578063b3cea21714610136575b600080fd5b6100a96100a4366004610aef565b6101f7565b005b3480156100b757600080fd5b506100cb6100c6366004610b24565b610350565b6040519081526020015b60405180910390f35b3480156100ea57600080fd5b506100a96100f9366004610b3d565b610390565b34801561010a57600080fd5b5061011e610119366004610b24565b610411565b6040516001600160a01b0390911681526020016100d5565b34801561014257600080fd5b506100cb60015481565b34801561015857600080fd5b5061016c610167366004610b24565b610476565b6040516100d59190610b69565b34801561018557600080fd5b5061011e610194366004610b24565b6000908152602081905260409020546001600160a01b031690565b3480156101bb57600080fd5b506101c46104e6565b6040516100d59190610bb6565b6100a96101df366004610c26565b610575565b6100a96101f2366004610b24565b61063e565b60008181526020819052604090206005810154821461022957604051634599737f60e11b815260040160405180910390fd5b80546001600160a01b0316331461025357604051630206dc1560e31b815260040160405180910390fd5b828160040154101561027857604051636a259e3160e11b815260040160405180910390fd5b8281600401600082825461028c9190610c60565b90915550506003810180546001808201835560009283526020808420909201869055600284018054918201815583529181902090910180546001600160a01b0319166001600160a01b038716179055604080518082019091526008815267494420697320257360c01b918101919091526005820154849161030c916108e3565b610349604051806060016040528060308152602001610dfb603091398354600185015460048601546001600160a01b039283169290911690610928565b5050505050565b60008181526020818152604080832081516060810190925260218083529092610386929190610db49083013960028301546108e3565b6002015492915050565b6000818152602081905260409020600581015482146103c257604051634599737f60e11b815260040160405180910390fd5b80546001600160a01b031633146103ec57604051630206dc1560e31b815260040160405180910390fd5b60010180546001600160a01b0319166001600160a01b03939093169290921790915550565b60008181526020818152604080832081518083019092526014825273546865206e6577204c617779657220697320257360601b92820192909252600182015461046391906001600160a01b0316610977565b600101546001600160a01b031692915050565b6000818152602081815260409182902060028101805484518185028101850190955280855260609492938301828280156104d957602002820191906000526020600020905b81546001600160a01b031681526001909101906020018083116104bb575b5050505050915050919050565b60606002805480602002602001604051908101604052809291908181526020016000905b8282101561056c576000848152602090819020604080516080810182526004860290920180546001600160a01b03908116845260018083015490911684860152600282015492840192909252600301546060830152908352909201910161050a565b50505050905090565b6001805490600061058583610c77565b909155505060018054600090815260208181526040918290208054336001600160a01b031991821617825581850180549091166001600160a01b03871617905534600482015592546005840181905582518084019093526008835267494420697320257360c01b918301919091526105fd91906108e3565b61063a604051806060016040528060308152602001610dfb603091398254600184015460048501546001600160a01b039283169290911690610928565b5050565b60008181526020819052604090206005810154821461067057604051634599737f60e11b815260040160405180910390fd5b60018101546001600160a01b0316331461069d57604051631548fb5d60e11b815260040160405180910390fd5b60005b600282015481101561089e578160020181815481106106c1576106c1610c92565b6000918252602090912001546003830180546001600160a01b03909216916108fc9190849081106106f4576106f4610c92565b90600052602060002001549081150290604051600060405180830381858888f1935050505015801561072a573d6000803e3d6000fd5b50604080516080810190915282546001600160a01b03168152600283810180549192916020830191908590811061076357610763610c92565b600091825260209182902001546001600160a01b0316825260038601805492909101918590811061079657610796610c92565b6000918252602080832090910154835260058701549281019290925283546001818101865594825290829020835160049092020180546001600160a01b039283166001600160a01b031991821617825584840151958201805496909316951694909417905560408083015160028501556060928301516003909401939093558251918201909252602680825261088c92610dd59083013983600201838154811061084257610842610c92565b6000918252602090912001546003850180546001600160a01b03909216918590811061087057610870610c92565b60009182526020909120015485546001600160a01b03166109bc565b8061089681610c77565b9150506106a0565b5060408051600081526020810191829052516108be916002840191610a22565b5060408051600081526020810191829052516108de916003840191610a87565b505050565b61063a82826040516024016108f9929190610cf5565b60408051601f198184030181529190526020810180516001600160e01b03166309710a9d60e41b179052610a01565b610971848484846040516024016109429493929190610d17565b60408051601f198184030181529190526020810180516001600160e01b0316636eb7943d60e01b179052610a01565b50505050565b61063a828260405160240161098d929190610d4d565b60408051601f198184030181529190526020810180516001600160e01b031663319af33360e01b179052610a01565b610971848484846040516024016109d69493929190610d77565b60408051601f198184030181529190526020810180516001600160e01b0316630146cdd960e71b1790525b80516a636f6e736f6c652e6c6f67602083016000808483855afa5050505050565b828054828255906000526020600020908101928215610a77579160200282015b82811115610a7757825182546001600160a01b0319166001600160a01b03909116178255602090920191600190910190610a42565b50610a83929150610ac2565b5090565b828054828255906000526020600020908101928215610a77579160200282015b82811115610a77578251825591602001919060010190610aa7565b5b80821115610a835760008155600101610ac3565b6001600160a01b0381168114610aec57600080fd5b50565b600080600060608486031215610b0457600080fd5b8335610b0f81610ad7565b95602085013595506040909401359392505050565b600060208284031215610b3657600080fd5b5035919050565b60008060408385031215610b5057600080fd5b8235610b5b81610ad7565b946020939093013593505050565b6020808252825182820181905260009190848201906040850190845b81811015610baa5783516001600160a01b031683529284019291840191600101610b85565b50909695505050505050565b602080825282518282018190526000919060409081850190868401855b82811015610c1957815180516001600160a01b03908116865287820151168786015285810151868601526060908101519085015260809093019290850190600101610bd3565b5091979650505050505050565b600060208284031215610c3857600080fd5b8135610c4381610ad7565b9392505050565b634e487b7160e01b600052601160045260246000fd5b600082821015610c7257610c72610c4a565b500390565b6000600019821415610c8b57610c8b610c4a565b5060010190565b634e487b7160e01b600052603260045260246000fd5b6000815180845260005b81811015610cce57602081850181015186830182015201610cb2565b81811115610ce0576000602083870101525b50601f01601f19169290920160200192915050565b604081526000610d086040830185610ca8565b90508260208301529392505050565b608081526000610d2a6080830187610ca8565b6001600160a01b0395861660208401529390941660408201526060015292915050565b604081526000610d606040830185610ca8565b905060018060a01b03831660208301529392505050565b608081526000610d8a6080830187610ca8565b6001600160a01b039586166020840152604083019490945250921660609092019190915291905056fe54686520496e68657269746f7273206172726179206c656e677468206973202573546865206164647265737320697320257320696e686572697465642025732066726f6d202573546865206f776e65722069732025732c546865204c61777965722069732025732c546865204173736574206973202573a2646970667358221220b47efb5e6af702b48aeb43f3d16fefc4be24c30d4b1e3da43e583c6f52e06dd564736f6c63430008090033",
  "linkReferences": {},
  "deployedLinkReferences": {}
}